{"abi":[{"type":"constructor","inputs":[{"name":"admin","type":"address","internalType":"address"}],"stateMutability":"nonpayable"},{"type":"function","name":"CREATOR_ROLE","inputs":[],"outputs":[{"name":"","type":"bytes32","internalType":"bytes32"}],"stateMutability":"view"},{"type":"function","name":"DEFAULT_ADMIN_ROLE","inputs":[],"outputs":[{"name":"","type":"bytes32","internalType":"bytes32"}],"stateMutability":"view"},{"type":"function","name":"WARDEN_ROLE","inputs":[],"outputs":[{"name":"","type":"bytes32","internalType":"bytes32"}],"stateMutability":"view"},{"type":"function","name":"createToken","inputs":[{"name":"_underlying_token","type":"address","internalType":"address"},{"name":"name","type":"string","internalType":"string"},{"name":"symbol","type":"string","internalType":"string"}],"outputs":[{"name":"","type":"address","internalType":"address"}],"stateMutability":"nonpayable"},{"type":"function","name":"getRoleAdmin","inputs":[{"name":"role","type":"bytes32","internalType":"bytes32"}],"outputs":[{"name":"","type":"bytes32","internalType":"bytes32"}],"stateMutability":"view"},{"type":"function","name":"grantRole","inputs":[{"name":"role","type":"bytes32","internalType":"bytes32"},{"name":"account","type":"address","internalType":"address"}],"outputs":[],"stateMutability":"nonpayable"},{"type":"function","name":"hasRole","inputs":[{"name":"role","type":"bytes32","internalType":"bytes32"},{"name":"account","type":"address","internalType":"address"}],"outputs":[{"name":"","type":"bool","internalType":"bool"}],"stateMutability":"view"},{"type":"function","name":"renounceRole","inputs":[{"name":"role","type":"bytes32","internalType":"bytes32"},{"name":"callerConfirmation","type":"address","internalType":"address"}],"outputs":[],"stateMutability":"nonpayable"},{"type":"function","name":"revokeRole","inputs":[{"name":"role","type":"bytes32","internalType":"bytes32"},{"name":"account","type":"address","internalType":"address"}],"outputs":[],"stateMutability":"nonpayable"},{"type":"function","name":"supportsInterface","inputs":[{"name":"interfaceId","type":"bytes4","internalType":"bytes4"}],"outputs":[{"name":"","type":"bool","internalType":"bool"}],"stateMutability":"view"},{"type":"function","name":"tokens","inputs":[{"name":"","type":"uint256","internalType":"uint256"}],"outputs":[{"name":"","type":"address","internalType":"address"}],"stateMutability":"view"},{"type":"function","name":"underlying_tokens","inputs":[{"name":"","type":"address","internalType":"address"}],"outputs":[{"name":"","type":"address","internalType":"address"}],"stateMutability":"view"},{"type":"function","name":"unwrap","inputs":[{"name":"_wrapped_token","type":"address","internalType":"address"},{"name":"_recipient","type":"address","internalType":"address"},{"name":"_amount","type":"uint256","internalType":"uint256"}],"outputs":[],"stateMutability":"nonpayable"},{"type":"function","name":"wrap","inputs":[{"name":"_underlying_token","type":"address","internalType":"address"},{"name":"_recipient","type":"address","internalType":"address"},{"name":"_amount","type":"uint256","internalType":"uint256"}],"outputs":[],"stateMutability":"nonpayable"},{"type":"function","name":"wrapped_tokens","inputs":[{"name":"","type":"address","internalType":"address"}],"outputs":[{"name":"","type":"address","internalType":"address"}],"stateMutability":"view"},{"type":"event","name":"Creation","inputs":[{"name":"underlying_token","type":"address","indexed":true,"internalType":"address"},{"name":"wrapped_token","type":"address","indexed":true,"internalType":"address"}],"anonymous":false},{"type":"event","name":"RoleAdminChanged","inputs":[{"name":"role","type":"bytes32","indexed":true,"internalType":"bytes32"},{"name":"previousAdminRole","type":"bytes32","indexed":true,"internalType":"bytes32"},{"name":"newAdminRole","type":"bytes32","indexed":true,"internalType":"bytes32"}],"anonymous":false},{"type":"event","name":"RoleGranted","inputs":[{"name":"role","type":"bytes32","indexed":true,"internalType":"bytes32"},{"name":"account","type":"address","indexed":true,"internalType":"address"},{"name":"sender","type":"address","indexed":true,"internalType":"address"}],"anonymous":false},{"type":"event","name":"RoleRevoked","inputs":[{"name":"role","type":"bytes32","indexed":true,"internalType":"bytes32"},{"name":"account","type":"address","indexed":true,"internalType":"address"},{"name":"sender","type":"address","indexed":true,"internalType":"address"}],"anonymous":false},{"type":"event","name":"Unwrap","inputs":[{"name":"underlying_token","type":"address","indexed":true,"internalType":"address"},{"name":"wrapped_token","type":"address","indexed":true,"internalType":"address"},{"name":"frm","type":"address","indexed":false,"internalType":"address"},{"name":"to","type":"address","indexed":true,"internalType":"address"},{"name":"amount","type":"uint256","indexed":false,"internalType":"uint256"}],"anonymous":false},{"type":"event","name":"Wrap","inputs":[{"name":"underlying_token","type":"address","indexed":true,"internalType":"address"},{"name":"wrapped_token","type":"address","indexed":true,"internalType":"address"},{"name":"to","type":"address","indexed":true,"internalType":"address"},{"name":"amount","type":"uint256","indexed":false,"internalType":"uint256"}],"anonymous":false},{"type":"error","name":"AccessControlBadConfirmation","inputs":[]},{"type":"error","name":"AccessControlUnauthorizedAccount","inputs":[{"name":"account","type":"address","internalType":"address"},{"name":"neededRole","type":"bytes32","internalType":"bytes32"}]}],"bytecode":{"object":"0x608060405234801561001057600080fd5b50604051611e3a380380611e3a83398101604081905261002f91610143565b61003a600082610097565b506100657f828634d95e775031b9ff576b159a8509d3053581a8c9c4d7d86899e0afcd882f82610097565b506100907fa95a5379b182f9ab2dea1336b28c22442227353b86d7e0a968f68d98add11c0782610097565b5050610173565b6000828152602081815260408083206001600160a01b038516845290915281205460ff16610139576000838152602081815260408083206001600160a01b03861684529091529020805460ff191660011790556100f13390565b6001600160a01b0316826001600160a01b0316847f2f8788117e7eff1d82e926ec794901d17c78024a50270940304540a733656f0d60405160405180910390a450600161013d565b5060005b92915050565b60006020828403121561015557600080fd5b81516001600160a01b038116811461016c57600080fd5b9392505050565b611cb8806101826000396000f3fe60806040523480156200001157600080fd5b5060043610620001095760003560e01c80636235563811620000a35780639426dc7c116200006e5780639426dc7c1462000290578063a217fddf14620002bc578063d4c6a3c114620002c5578063d547741f14620002dc57600080fd5b80636235563814620002235780638aeda25a146200023a5780638cc7104f146200026257806391d14854146200027957600080fd5b80632f2ff15d11620000e45780632f2ff15d14620001b457806336568abe14620001cd578063471d2b1e14620001e45780634f64b2be146200020c57600080fd5b806301ffc9a7146200010e5780630e35c5a0146200013a578063248a9ca3146200017f575b600080fd5b620001256200011f36600462000905565b620002f3565b60405190151581526020015b60405180910390f35b620001666200014b36600462000955565b6002602052600090815260409020546001600160a01b031681565b6040516001600160a01b03909116815260200162000131565b620001a56200019036600462000973565b60009081526020819052604090206001015490565b60405190815260200162000131565b620001cb620001c53660046200098d565b6200032b565b005b620001cb620001de3660046200098d565b6200035a565b620001a57fa95a5379b182f9ab2dea1336b28c22442227353b86d7e0a968f68d98add11c0781565b620001666200021d36600462000973565b62000395565b620001cb62000234366004620009bc565b620003c0565b620001a57f828634d95e775031b9ff576b159a8509d3053581a8c9c4d7d86899e0afcd882f81565b620001cb62000273366004620009bc565b62000539565b620001256200028a3660046200098d565b62000650565b62000166620002a136600462000955565b6001602052600090815260409020546001600160a01b031681565b620001a5600081565b62000166620002d636600462000aa8565b62000679565b620001cb620002ed3660046200098d565b62000777565b60006001600160e01b03198216637965db0b60e01b14806200032557506301ffc9a760e01b6001600160e01b03198316145b92915050565b6000828152602081905260409020600101546200034881620007a0565b620003548383620007af565b50505050565b6001600160a01b0381163314620003845760405163334bd91960e11b815260040160405180910390fd5b62000390828262000847565b505050565b60038181548110620003a657600080fd5b6000918252602090912001546001600160a01b0316905081565b7fa95a5379b182f9ab2dea1336b28c22442227353b86d7e0a968f68d98add11c07620003ec81620007a0565b6001600160a01b0384811660009081526002602052604090205416620004635760405162461bcd60e51b815260206004820152602160248201527f43616e6e6f74207772617020616e20756e7265676973746572656420746f6b656044820152603760f91b60648201526084015b60405180910390fd5b6001600160a01b03848116600090815260026020526040908190205490516340c10f1960e01b81528583166004820152602481018590529116906340c10f1990604401600060405180830381600087803b158015620004c157600080fd5b505af1158015620004d6573d6000803e3d6000fd5b505050506001600160a01b03848116600081815260026020908152604091829020549151868152878516949290921692917fbfa61fc27bb37f6f94529a9d0f81f1cc1a422648a9febe15aa90d13c33ed9ad791015b60405180910390a450505050565b6001600160a01b0383811660009081526001602052604090205416620005945760405162461bcd60e51b815260206004820152600f60248201526e1d1bdad95b881b9bdd08199bdd5b99608a1b60448201526064016200045a565b60405163079cc67960e41b81523360048201526024810182905283906001600160a01b038216906379cc679090604401600060405180830381600087803b158015620005df57600080fd5b505af1158015620005f4573d6000803e3d6000fd5b505050506001600160a01b038481166000818152600160209081526040918290205482513381529182018790528785169416917f76c8363176a251e7fc7e9e1efa1368b20f004efe648ee60703b69e78f74ec62391016200052b565b6000918252602082815260408084206001600160a01b0393909316845291905290205460ff1690565b60007f828634d95e775031b9ff576b159a8509d3053581a8c9c4d7d86899e0afcd882f620006a781620007a0565b600085858530604051620006bb90620008f7565b620006ca949392919062000b6d565b604051809103906000f080158015620006e7573d6000803e3d6000fd5b509050806001600160a01b0316866001600160a01b03167f5d8b63f15287bdab6ff15f7cb53d683a8c7be345942343ae319510f5224a6d0160405160405180910390a36001600160a01b03808716600081815260026020908152604080832080549587166001600160a01b0319968716811790915583526001909152902080549092161790559150509392505050565b6000828152602081905260409020600101546200079481620007a0565b62000354838362000847565b620007ac8133620008b6565b50565b6000620007bd838362000650565b6200083e576000838152602081815260408083206001600160a01b03861684529091529020805460ff19166001179055620007f53390565b6001600160a01b0316826001600160a01b0316847f2f8788117e7eff1d82e926ec794901d17c78024a50270940304540a733656f0d60405160405180910390a450600162000325565b50600062000325565b600062000855838362000650565b156200083e576000838152602081815260408083206001600160a01b0386168085529252808320805460ff1916905551339286917ff6391f5c32d9c69d2a47ea670b442974b53935d1edc7fd64eb21e047a839171b9190a450600162000325565b620008c2828262000650565b620008f35760405163e2517d3f60e01b81526001600160a01b0382166004820152602481018390526044016200045a565b5050565b6110c88062000bbb83390190565b6000602082840312156200091857600080fd5b81356001600160e01b0319811681146200093157600080fd5b9392505050565b80356001600160a01b03811681146200095057600080fd5b919050565b6000602082840312156200096857600080fd5b620009318262000938565b6000602082840312156200098657600080fd5b5035919050565b60008060408385031215620009a157600080fd5b82359150620009b36020840162000938565b90509250929050565b600080600060608486031215620009d257600080fd5b620009dd8462000938565b9250620009ed6020850162000938565b9150604084013590509250925092565b634e487b7160e01b600052604160045260246000fd5b600082601f83011262000a2557600080fd5b813567ffffffffffffffff8082111562000a435762000a43620009fd565b604051601f8301601f19908116603f0116810190828211818310171562000a6e5762000a6e620009fd565b8160405283815286602085880101111562000a8857600080fd5b836020870160208301376000602085830101528094505050505092915050565b60008060006060848603121562000abe57600080fd5b62000ac98462000938565b9250602084013567ffffffffffffffff8082111562000ae757600080fd5b62000af58783880162000a13565b9350604086013591508082111562000b0c57600080fd5b5062000b1b8682870162000a13565b9150509250925092565b6000815180845260005b8181101562000b4d5760208185018101518683018201520162000b2f565b506000602082860101526020601f19601f83011685010191505092915050565b600060018060a01b0380871683526080602084015262000b91608084018762000b25565b838103604085015262000ba5818762000b25565b9250508084166060840152509594505050505056fe60806040523480156200001157600080fd5b50604051620010c8380380620010c883398101604081905262000034916200024e565b828260036200004483826200036f565b5060046200005382826200036f565b5050600680546001600160a01b0319166001600160a01b038716179055506200007e600082620000b6565b50620000ab7f9f2df0fed2c77648de5860a4cc508cd0818c85b8b8a1ab4ceeef8d981c8956a682620000b6565b50505050506200043b565b60008281526005602090815260408083206001600160a01b038516845290915281205460ff166200015f5760008381526005602090815260408083206001600160a01b03861684529091529020805460ff19166001179055620001163390565b6001600160a01b0316826001600160a01b0316847f2f8788117e7eff1d82e926ec794901d17c78024a50270940304540a733656f0d60405160405180910390a450600162000163565b5060005b92915050565b80516001600160a01b03811681146200018157600080fd5b919050565b634e487b7160e01b600052604160045260246000fd5b600082601f830112620001ae57600080fd5b81516001600160401b0380821115620001cb57620001cb62000186565b604051601f8301601f19908116603f01168101908282118183101715620001f657620001f662000186565b81604052838152602092508660208588010111156200021457600080fd5b600091505b8382101562000238578582018301518183018401529082019062000219565b6000602085830101528094505050505092915050565b600080600080608085870312156200026557600080fd5b620002708562000169565b60208601519094506001600160401b03808211156200028e57600080fd5b6200029c888389016200019c565b94506040870151915080821115620002b357600080fd5b50620002c2878288016200019c565b925050620002d36060860162000169565b905092959194509250565b600181811c90821680620002f357607f821691505b6020821081036200031457634e487b7160e01b600052602260045260246000fd5b50919050565b601f8211156200036a576000816000526020600020601f850160051c81016020861015620003455750805b601f850160051c820191505b81811015620003665782815560010162000351565b5050505b505050565b81516001600160401b038111156200038b576200038b62000186565b620003a3816200039c8454620002de565b846200031a565b602080601f831160018114620003db5760008415620003c25750858301515b600019600386901b1c1916600185901b17855562000366565b600085815260208120601f198616915b828110156200040c57888601518255948401946001909101908401620003eb565b50858210156200042b5787850151600019600388901b60f8161c191681555b5050505050600190811b01905550565b610c7d806200044b6000396000f3fe608060405234801561001057600080fd5b50600436106101425760003560e01c806342966c68116100b857806395d89b411161007c57806395d89b41146102c9578063a217fddf146102d1578063a9059cbb146102d9578063d5391393146102ec578063d547741f14610301578063dd62ed3e1461031457600080fd5b806342966c681461023c5780636f307dc31461024f57806370a082311461027a57806379cc6790146102a357806391d14854146102b657600080fd5b8063248a9ca31161010a578063248a9ca3146101bc5780632f2ff15d146101df578063313ce567146101f457806336568abe1461020357806340c10f1914610216578063422b53221461022957600080fd5b806301ffc9a71461014757806306fdde031461016f578063095ea7b31461018457806318160ddd1461019757806323b872dd146101a9575b600080fd5b61015a610155366004610a40565b61034d565b60405190151581526020015b60405180910390f35b610177610384565b6040516101669190610a71565b61015a610192366004610adc565b610416565b6002545b604051908152602001610166565b61015a6101b7366004610b06565b61042e565b61019b6101ca366004610b42565b60009081526005602052604090206001015490565b6101f26101ed366004610b5b565b610452565b005b60405160128152602001610166565b6101f2610211366004610b5b565b61047d565b6101f2610224366004610adc565b6104b5565b6101f2610237366004610adc565b6104d7565b6101f261024a366004610b42565b6104f9565b600654610262906001600160a01b031681565b6040516001600160a01b039091168152602001610166565b61019b610288366004610b87565b6001600160a01b031660009081526020819052604090205490565b6101f26102b1366004610adc565b610506565b61015a6102c4366004610b5b565b61053b565b610177610566565b61019b600081565b61015a6102e7366004610adc565b610575565b61019b600080516020610c2883398151915281565b6101f261030f366004610b5b565b610583565b61019b610322366004610ba2565b6001600160a01b03918216600090815260016020908152604080832093909416825291909152205490565b60006001600160e01b03198216637965db0b60e01b148061037e57506301ffc9a760e01b6001600160e01b03198316145b92915050565b60606003805461039390610bcc565b80601f01602080910402602001604051908101604052809291908181526020018280546103bf90610bcc565b801561040c5780601f106103e15761010080835404028352916020019161040c565b820191906000526020600020905b8154815290600101906020018083116103ef57829003601f168201915b5050505050905090565b6000336104248185856105a8565b5060019392505050565b60003361043c8582856105b5565b610447858585610632565b506001949350505050565b60008281526005602052604090206001015461046d81610691565b610477838361069b565b50505050565b6001600160a01b03811633146104a65760405163334bd91960e11b815260040160405180910390fd5b6104b0828261072f565b505050565b600080516020610c288339815191526104cd81610691565b6104b0838361079c565b600080516020610c288339815191526104ef81610691565b6104b083836107d2565b61050333826107d2565b50565b61051e600080516020610c288339815191523361053b565b61052d5761052d8233836105b5565b61053782826107d2565b5050565b60009182526005602090815260408084206001600160a01b0393909316845291905290205460ff1690565b60606004805461039390610bcc565b600033610424818585610632565b60008281526005602052604090206001015461059e81610691565b610477838361072f565b6104b08383836001610808565b6001600160a01b038381166000908152600160209081526040808320938616835292905220546000198114610477578181101561062357604051637dc7a0d960e11b81526001600160a01b038416600482015260248101829052604481018390526064015b60405180910390fd5b61047784848484036000610808565b6001600160a01b03831661065c57604051634b637e8f60e11b81526000600482015260240161061a565b6001600160a01b0382166106865760405163ec442f0560e01b81526000600482015260240161061a565b6104b08383836108dd565b6105038133610a07565b60006106a7838361053b565b6107275760008381526005602090815260408083206001600160a01b03861684529091529020805460ff191660011790556106df3390565b6001600160a01b0316826001600160a01b0316847f2f8788117e7eff1d82e926ec794901d17c78024a50270940304540a733656f0d60405160405180910390a450600161037e565b50600061037e565b600061073b838361053b565b156107275760008381526005602090815260408083206001600160a01b0386168085529252808320805460ff1916905551339286917ff6391f5c32d9c69d2a47ea670b442974b53935d1edc7fd64eb21e047a839171b9190a450600161037e565b6001600160a01b0382166107c65760405163ec442f0560e01b81526000600482015260240161061a565b610537600083836108dd565b6001600160a01b0382166107fc57604051634b637e8f60e11b81526000600482015260240161061a565b610537826000836108dd565b6001600160a01b0384166108325760405163e602df0560e01b81526000600482015260240161061a565b6001600160a01b03831661085c57604051634a1406b160e11b81526000600482015260240161061a565b6001600160a01b038085166000908152600160209081526040808320938716835292905220829055801561047757826001600160a01b0316846001600160a01b03167f8c5be1e5ebec7d5bd14f71427d1e84f3dd0314c0f7b2291e5b200ac8c7c3b925846040516108cf91815260200190565b60405180910390a350505050565b6001600160a01b0383166109085780600260008282546108fd9190610c06565b9091555061097a9050565b6001600160a01b0383166000908152602081905260409020548181101561095b5760405163391434e360e21b81526001600160a01b0385166004820152602481018290526044810183905260640161061a565b6001600160a01b03841660009081526020819052604090209082900390555b6001600160a01b038216610996576002805482900390556109b5565b6001600160a01b03821660009081526020819052604090208054820190555b816001600160a01b0316836001600160a01b03167fddf252ad1be2c89b69c2b068fc378daa952ba7f163c4a11628f55a4df523b3ef836040516109fa91815260200190565b60405180910390a3505050565b610a11828261053b565b6105375760405163e2517d3f60e01b81526001600160a01b03821660048201526024810183905260440161061a565b600060208284031215610a5257600080fd5b81356001600160e01b031981168114610a6a57600080fd5b9392505050565b60006020808352835180602085015260005b81811015610a9f57858101830151858201604001528201610a83565b506000604082860101526040601f19601f8301168501019250505092915050565b80356001600160a01b0381168114610ad757600080fd5b919050565b60008060408385031215610aef57600080fd5b610af883610ac0565b946020939093013593505050565b600080600060608486031215610b1b57600080fd5b610b2484610ac0565b9250610b3260208501610ac0565b9150604084013590509250925092565b600060208284031215610b5457600080fd5b5035919050565b60008060408385031215610b6e57600080fd5b82359150610b7e60208401610ac0565b90509250929050565b600060208284031215610b9957600080fd5b610a6a82610ac0565b60008060408385031215610bb557600080fd5b610bbe83610ac0565b9150610b7e60208401610ac0565b600181811c90821680610be057607f821691505b602082108103610c0057634e487b7160e01b600052602260045260246000fd5b50919050565b8082018082111561037e57634e487b7160e01b600052601160045260246000fdfe9f2df0fed2c77648de5860a4cc508cd0818c85b8b8a1ab4ceeef8d981c8956a6a2646970667358221220f6290b25868fce12ae04da0ae03036dc477800685a96b8da3069bf4a7219ebe064736f6c63430008180033a2646970667358221220af4052e6086f4df3605dde65d63b5f51dc79abcbe2af4827485d13ebe189e06d64736f6c63430008180033","linkReferences":{}},"methodIdentifiers":{"CREATOR_ROLE()":"8aeda25a","DEFAULT_ADMIN_ROLE()":"a217fddf","WARDEN_ROLE()":"471d2b1e","createToken(address,string,string)":"d4c6a3c1","getRoleAdmin(bytes32)":"248a9ca3","grantRole(bytes32,address)":"2f2ff15d","hasRole(bytes32,address)":"91d14854","renounceRole(bytes32,address)":"36568abe","revokeRole(bytes32,address)":"d547741f","supportsInterface(bytes4)":"01ffc9a7","tokens(uint256)":"4f64b2be","underlying_tokens(address)":"9426dc7c","unwrap(address,address,uint256)":"8cc7104f","wrap(address,address,uint256)":"62355638","wrapped_tokens(address)":"0e35c5a0"},"id":11}