{"abi":[{"type":"constructor","inputs":[{"name":"admin","type":"address","internalType":"address"}],"stateMutability":"nonpayable"},{"type":"function","name":"ADMIN_ROLE","inputs":[],"outputs":[{"name":"","type":"bytes32","internalType":"bytes32"}],"stateMutability":"view"},{"type":"function","name":"DEFAULT_ADMIN_ROLE","inputs":[],"outputs":[{"name":"","type":"bytes32","internalType":"bytes32"}],"stateMutability":"view"},{"type":"function","name":"WARDEN_ROLE","inputs":[],"outputs":[{"name":"","type":"bytes32","internalType":"bytes32"}],"stateMutability":"view"},{"type":"function","name":"approved","inputs":[{"name":"","type":"address","internalType":"address"}],"outputs":[{"name":"","type":"bool","internalType":"bool"}],"stateMutability":"view"},{"type":"function","name":"deposit","inputs":[{"name":"_token","type":"address","internalType":"address"},{"name":"_recipient","type":"address","internalType":"address"},{"name":"_amount","type":"uint256","internalType":"uint256"}],"outputs":[],"stateMutability":"nonpayable"},{"type":"function","name":"getRoleAdmin","inputs":[{"name":"role","type":"bytes32","internalType":"bytes32"}],"outputs":[{"name":"","type":"bytes32","internalType":"bytes32"}],"stateMutability":"view"},{"type":"function","name":"grantRole","inputs":[{"name":"role","type":"bytes32","internalType":"bytes32"},{"name":"account","type":"address","internalType":"address"}],"outputs":[],"stateMutability":"nonpayable"},{"type":"function","name":"hasRole","inputs":[{"name":"role","type":"bytes32","internalType":"bytes32"},{"name":"account","type":"address","internalType":"address"}],"outputs":[{"name":"","type":"bool","internalType":"bool"}],"stateMutability":"view"},{"type":"function","name":"registerToken","inputs":[{"name":"_token","type":"address","internalType":"address"}],"outputs":[],"stateMutability":"nonpayable"},{"type":"function","name":"renounceRole","inputs":[{"name":"role","type":"bytes32","internalType":"bytes32"},{"name":"callerConfirmation","type":"address","internalType":"address"}],"outputs":[],"stateMutability":"nonpayable"},{"type":"function","name":"revokeRole","inputs":[{"name":"role","type":"bytes32","internalType":"bytes32"},{"name":"account","type":"address","internalType":"address"}],"outputs":[],"stateMutability":"nonpayable"},{"type":"function","name":"supportsInterface","inputs":[{"name":"interfaceId","type":"bytes4","internalType":"bytes4"}],"outputs":[{"name":"","type":"bool","internalType":"bool"}],"stateMutability":"view"},{"type":"function","name":"tokens","inputs":[{"name":"","type":"uint256","internalType":"uint256"}],"outputs":[{"name":"","type":"address","internalType":"address"}],"stateMutability":"view"},{"type":"function","name":"withdraw","inputs":[{"name":"_token","type":"address","internalType":"address"},{"name":"_recipient","type":"address","internalType":"address"},{"name":"_amount","type":"uint256","internalType":"uint256"}],"outputs":[],"stateMutability":"nonpayable"},{"type":"event","name":"Deposit","inputs":[{"name":"token","type":"address","indexed":true,"internalType":"address"},{"name":"recipient","type":"address","indexed":true,"internalType":"address"},{"name":"amount","type":"uint256","indexed":false,"internalType":"uint256"}],"anonymous":false},{"type":"event","name":"Registration","inputs":[{"name":"token","type":"address","indexed":true,"internalType":"address"}],"anonymous":false},{"type":"event","name":"RoleAdminChanged","inputs":[{"name":"role","type":"bytes32","indexed":true,"internalType":"bytes32"},{"name":"previousAdminRole","type":"bytes32","indexed":true,"internalType":"bytes32"},{"name":"newAdminRole","type":"bytes32","indexed":true,"internalType":"bytes32"}],"anonymous":false},{"type":"event","name":"RoleGranted","inputs":[{"name":"role","type":"bytes32","indexed":true,"internalType":"bytes32"},{"name":"account","type":"address","indexed":true,"internalType":"address"},{"name":"sender","type":"address","indexed":true,"internalType":"address"}],"anonymous":false},{"type":"event","name":"RoleRevoked","inputs":[{"name":"role","type":"bytes32","indexed":true,"internalType":"bytes32"},{"name":"account","type":"address","indexed":true,"internalType":"address"},{"name":"sender","type":"address","indexed":true,"internalType":"address"}],"anonymous":false},{"type":"event","name":"Withdrawal","inputs":[{"name":"token","type":"address","indexed":true,"internalType":"address"},{"name":"recipient","type":"address","indexed":true,"internalType":"address"},{"name":"amount","type":"uint256","indexed":false,"internalType":"uint256"}],"anonymous":false},{"type":"error","name":"AccessControlBadConfirmation","inputs":[]},{"type":"error","name":"AccessControlUnauthorizedAccount","inputs":[{"name":"account","type":"address","internalType":"address"},{"name":"neededRole","type":"bytes32","internalType":"bytes32"}]}],"bytecode":{"object":"0x608060405234801561001057600080fd5b50604051610a6c380380610a6c83398101604081905261002f91610118565b61003a60008261006c565b506100657fa49807205ce4d355092ef5a8a18f56e8913cf4a201fbe287825b095693c217758261006c565b5050610148565b6000828152602081815260408083206001600160a01b038516845290915281205460ff1661010e576000838152602081815260408083206001600160a01b03861684529091529020805460ff191660011790556100c63390565b6001600160a01b0316826001600160a01b0316847f2f8788117e7eff1d82e926ec794901d17c78024a50270940304540a733656f0d60405160405180910390a4506001610112565b5060005b92915050565b60006020828403121561012a57600080fd5b81516001600160a01b038116811461014157600080fd5b9392505050565b610915806101576000396000f3fe608060405234801561001057600080fd5b50600436106100ea5760003560e01c806375b238fc1161008c578063a217fddf11610066578063a217fddf14610222578063d547741f1461022a578063d8b964e61461023d578063d9caed121461026057600080fd5b806375b238fc146101d55780638340f549146101fc57806391d148541461020f57600080fd5b80632f2ff15d116100c85780632f2ff15d1461015d57806336568abe14610170578063471d2b1e146101835780634f64b2be146101aa57600080fd5b806301ffc9a7146100ef57806309824a8014610117578063248a9ca31461012c575b600080fd5b6101026100fd3660046107d4565b610273565b60405190151581526020015b60405180910390f35b61012a610125366004610821565b6102aa565b005b61014f61013a36600461083c565b60009081526020819052604090206001015490565b60405190815260200161010e565b61012a61016b366004610855565b610392565b61012a61017e366004610855565b6103bd565b61014f7fa95a5379b182f9ab2dea1336b28c22442227353b86d7e0a968f68d98add11c0781565b6101bd6101b836600461083c565b6103f5565b6040516001600160a01b03909116815260200161010e565b61014f7fa49807205ce4d355092ef5a8a18f56e8913cf4a201fbe287825b095693c2177581565b61012a61020a366004610881565b61041f565b61010261021d366004610855565b61054e565b61014f600081565b61012a610238366004610855565b610577565b61010261024b366004610821565b60016020526000908152604090205460ff1681565b61012a61026e366004610881565b61059c565b60006001600160e01b03198216637965db0b60e01b14806102a457506301ffc9a760e01b6001600160e01b03198316145b92915050565b7fa49807205ce4d355092ef5a8a18f56e8913cf4a201fbe287825b095693c217756102d48161068d565b6001600160a01b03821660009081526001602052604090205460ff16156103425760405162461bcd60e51b815260206004820152601860248201527f746f6b656e20616c72656164792072656769737465726564000000000000000060448201526064015b60405180910390fd5b6001600160a01b0382166000818152600160208190526040808320805460ff1916909217909155517f478f5152d8fc568db3f8de9fb402fd9d98a1a7541ecfe434e59cf574fbfc55249190a25050565b6000828152602081905260409020600101546103ad8161068d565b6103b7838361069a565b50505050565b6001600160a01b03811633146103e65760405163334bd91960e11b815260040160405180910390fd5b6103f0828261072c565b505050565b6002818154811061040557600080fd5b6000918252602090912001546001600160a01b0316905081565b6001600160a01b03831660009081526001602081905260409091205460ff161515146104845760405162461bcd60e51b81526020600482015260146024820152731d1bdad95b881b9bdd081c9959da5cdd195c995960621b6044820152606401610339565b6040516323b872dd60e01b8152336004820152306024820152604481018290526001600160a01b038416906323b872dd906064016020604051808303816000875af11580156104d7573d6000803e3d6000fd5b505050506040513d601f19601f820116820180604052508101906104fb91906108bd565b50816001600160a01b0316836001600160a01b03167f5548c837ab068cf56a2c2479df0882a4922fd203edb7517321831d95078c5f628360405161054191815260200190565b60405180910390a3505050565b6000918252602082815260408084206001600160a01b0393909316845291905290205460ff1690565b6000828152602081905260409020600101546105928161068d565b6103b7838361072c565b7fa49807205ce4d355092ef5a8a18f56e8913cf4a201fbe287825b095693c217756105c68161068d565b60405163a9059cbb60e01b81526001600160a01b0384811660048301526024820184905285169063a9059cbb906044016020604051808303816000875af1158015610615573d6000803e3d6000fd5b505050506040513d601f19601f8201168201806040525081019061063991906108bd565b50826001600160a01b0316846001600160a01b03167f2717ead6b9200dd235aad468c9809ea400fe33ac69b5bfaa6d3e90fc922b63988460405161067f91815260200190565b60405180910390a350505050565b6106978133610797565b50565b60006106a6838361054e565b610724576000838152602081815260408083206001600160a01b03861684529091529020805460ff191660011790556106dc3390565b6001600160a01b0316826001600160a01b0316847f2f8788117e7eff1d82e926ec794901d17c78024a50270940304540a733656f0d60405160405180910390a45060016102a4565b5060006102a4565b6000610738838361054e565b15610724576000838152602081815260408083206001600160a01b0386168085529252808320805460ff1916905551339286917ff6391f5c32d9c69d2a47ea670b442974b53935d1edc7fd64eb21e047a839171b9190a45060016102a4565b6107a1828261054e565b6107d05760405163e2517d3f60e01b81526001600160a01b038216600482015260248101839052604401610339565b5050565b6000602082840312156107e657600080fd5b81356001600160e01b0319811681146107fe57600080fd5b9392505050565b80356001600160a01b038116811461081c57600080fd5b919050565b60006020828403121561083357600080fd5b6107fe82610805565b60006020828403121561084e57600080fd5b5035919050565b6000806040838503121561086857600080fd5b8235915061087860208401610805565b90509250929050565b60008060006060848603121561089657600080fd5b61089f84610805565b92506108ad60208501610805565b9150604084013590509250925092565b6000602082840312156108cf57600080fd5b815180151581146107fe57600080fdfea2646970667358221220243de6bc20d98a0b7823748f3b098d4fd5573715a45da6836fc236176f9b725f64736f6c63430008180033","linkReferences":{}},"methodIdentifiers":{"ADMIN_ROLE()":"75b238fc","DEFAULT_ADMIN_ROLE()":"a217fddf","WARDEN_ROLE()":"471d2b1e","approved(address)":"d8b964e6","deposit(address,address,uint256)":"8340f549","getRoleAdmin(bytes32)":"248a9ca3","grantRole(bytes32,address)":"2f2ff15d","hasRole(bytes32,address)":"91d14854","registerToken(address)":"09824a80","renounceRole(bytes32,address)":"36568abe","revokeRole(bytes32,address)":"d547741f","supportsInterface(bytes4)":"01ffc9a7","tokens(uint256)":"4f64b2be","withdraw(address,address,uint256)":"d9caed12"},"id":12}